:040000005BEF00F0C2
:10000800FACFB8F0FBCFB9F0E9CFBAF003EF04F0BC
:10001800D8CF1DF0E8CF1EF0E0CF1FF0FACF20F0C8
:10002800FBCF21F0E9CF22F0EACF23F0E1CF24F093
:10003800E2CF25F0D9CF26F0DACF27F0F3CF28F09A
:10004800F4CF29F0F6CF2AF0F7CF2BF0F8CF2CF029
:10005800F5CF2DF09EA003D09E905FEC06F09EAAEF
:1000680003D09E9A71EC03F02DC0F5FF2CC0F8FF69
:100078002BC0F7FF2AC0F6FF29C0F4FF28C0F3FF02
:1000880027C0DAFF26C0D9FF25C0E2FF24C0E1FF60
:1000980023C0EAFF22C0E9FF21C0FBFF20C0FAFF0E
:1000A8001FC0E0FF1EC0E8FF1DC0D8FF100098EF7A
:1000B80005F052D1C5B0FED7000120EE1CF00001BA
:1000C800CE51D9260001CF51DA22DF50D8A40BD067
:1000D800000120EE0CF00001CE51D9260001CF51CD
:1000E800DA22030E16D0000120EE1CF00001CE51DA
:1000F800D9260001CF51DA22010EDF620BD00001B0
:1001080020EE0CF00001CE51D9260001CF51DA22A1
:10011800070EDF6E000120EE1BF00001CE51D9263C
:100128000001CF51DA22DF50C96E1200000120EE23
:100138000CF00001CE51D9260001CF51DA22040E6D
:10014800DF6E1200C5BCFED7000120EE1AF00001D8
:10015800CE51D9260001CF51DA22DF502E6E000190
:1001680020EE19F00001CE51D9260001CF51DA2234
:10017800DF502E5CD8B026D0000120EE1AF0000126
:10018800CE51D9260001CF51DA22DF502E6E2E50E3
:10019800010D0F0EF326000EF422F3500001CE25B8
:1001A800D96EF4500001CF21DA6EDF50C96E00011C
:1001B80020EE1AF00001CE51D9260001CF51DA22E3
:1001C800DF2A1200000120EE1AF00001CE51D926D4
:1001D8000001CF51DA22000110EE19F00001CE51D2
:1001E800E1260001CF51E222E750DF621200000150
:1001F80020EE0CF00001CE51D9260001CF51DA22B1
:10020800020EDF6EC5841200000120EE0CF0000122
:10021800CE51D9260001CF51DA22070EDF6EC586EE
:100228001200000120EE1AF00001CE51D92600017B
:10023800CF51DA22DF50FF0AD8B466D0000120EE91
:100248001AF00001CE51D9260001CF51DA22DF5031
:100258002E6E000120EE19F00001CE51D9260001C2
:10026800CF51DA22DF502E5CD8B04ED0000120EEFC
:100278001AF00001CE51D9260001CF51DA22DF5001
:100288002E6E2E50010D0F0EF326000EF422F350A1
:100298000001CE25D96EF4500001CF21DA6EC9CF06
:1002A800DFFF000120EE1AF00001CE51D92600012F
:1002B800CF51DA22DF2A000120EE1AF00001CE51D8
:1002C800D9260001CF51DA22DF502E6E000120EE30
:1002D80019F00001CE51D9260001CF51DA22DF50A2
:1002E8002E5CD8B00ED0000120EE0CF00001CE51EB
:1002F800D9260001CF51DA22050EDF6EC59AC588CE
:100308001200C58AC5881200000120EE1AF000010B
:10031800CE51D9260001CF51DA22FF0EDF620FD06D
:10032800C5BCFED7000120EE1AF00001CE51D92637
:100338000001CF51DA22000EDF6EC58612000001DF
:1003480020EE0CF00001CE51D9260001CF51DA225F
:10035800020EDF6EC5841200000120EE0CF00001D1
:10036800CE51D9260001CF51DA22DF50010AD8B484
:10037800A1D6030AD8B4DAD6010AD8B4E3D6060A55
:10038800D8B442D7020AD8A412004BD7000120EEF5
:1003980035F00001A051D9260001A151DA22DF5021
:1003A8000001A96F0001A9510D0DF3500001A0250E
:1003B8000001AC6FF4500001A1210001AD6F010EE6
:1003C800ACC0D9FFADC0DAFFDF626DD0000120EE0E
:1003D80001F00001AC51D9260001AD51DA22DF50FD
:1003E8000001A25DD8B002D0FD0E1200000120EE7F
:1003F80001F00001AC51D9260001AD51DA22DF50DD
:100408000001A76F0001A7510001AA6F0001AB6BA3
:100418000001A6C097F00001A5C096F0030E0001E8
:10042800AC250001A76F000E0001AD210001A86FE7
:10043800A7C098F0A8C099F0AAC09AF0ABC09BF0EA
:1004480070EC05F0000120EE35F00001A051D9262E
:100458000001A151DA22000110EE35F00001A0518F
:10046800E1260001A151E222E7500001A76F000137
:10047800A729030BDF6E000120EE02F00001AC514A
:10048800D9260001AD51DA22A3C0E1FFA4C0E2FFE2
:10049800DFCFE7FFACC0D9FFADC0DAFF000EDF6EDB
:1004A8000001AA511200FC0E12000001A2C0A6F021
:1004B8000001A76B000120EE34F00001A051D926FD
:1004C8000001A151DA22DF500001A86F0001A851F4
:1004D8000D0DF3500001A0250001A96FF450000193
:1004E800A1210001AA6FA9C0D9FFAAC0DAFFDF5075
:1004F800D8B402D0FF0E1200000120EE01F0000176
:10050800A951D9260001AA51DA220001A2C0DFFFB1
:10051800000120EE02F00001A951D9260001AA51DC
:10052800DA220001A3C0DFFF030E0001A9250001A4
:10053800966F000E0001AA210001976F0001A5C067
:1005480099F00001A4C098F0A6C09AF0A7C09BF04B
:1005580070EC05F0000120EE34F00001A051D9261E
:100568000001A151DA22000110EE34F00001A0517F
:10057800E1260001A151E222E7502E6E2E28030B3E
:10058800DF6EA9C0D9FFAAC0DAFF010EDF6E010E27
:1005980012000DC012F0136A20EE34F00B50D92669
:1005A8000C50DA22DF50146E14500D0DF3500B244A
:1005B800156EF4500C20166E15C0D9FF16C0DAFF60
:1005C800DF50D8B402D0FF0E120020EE01F0155013
:1005D800D9261650DA220DC0DFFF20EE02F01550A2
:1005E800D9261650DA220EC0DFFF030E1524016E3D
:1005F800000E1620026E10C004F00FC003F012C0E7
:1006080005F013C006F0BBEC05F020EE34F00B50FB
:10061800D9260C50DA2210EE34F00B50E1260C509B
:10062800E222E750116E1128030BDF6E15C0D9FFC7
:1006380016C0DAFF010EDF6E010E12000001C76F4F
:100648000001C76701D01200000120EE0CF0000184
:10065800CE51D9260001CF51DA22DF50040AD8A49E
:100668001200000120EE1BF00001CE51D926000136
:10067800CF51DA22D8800001C635DF6E000120EEA6
:1006880019F00001CE51D9260001CF51DA2200011C
:10069800C7C0DFFF000120EE1AF00001CE51D926B5
:1006A8000001CF51DA22FF0EDF6E000120EE1CF0B0
:1006B8000001CE51D9260001CF51DA22010EDF6E9A
:1006C800000120EE0CF00001CE51D9260001CF51D7
:1006D800DA22010EDF6EC58012009EAA3AD020EE03
:1006E80004F02F50D9263050DA22DF501B6E1B50F1
:1006F800010DF3502F24D96EF4503020DA6E96ECA9
:1007080006F0DF6E20EE04F02F50D9263050DA22A2
:10071800DF2A20EE04F02F50D9263050DA22040EBA
:10072800DF6217D01F0E176E30C019F02FC018F0F7
:1007380020EE04F02F50D9263050DA22DF5075EC25
:1007480006F020EE04F02F50D9263050DA22000EA1
:10075800DF6E32A61200AC98AC881E0E176E000E23
:10076800196E000E186E000E75EC06F01200E00E01
:10077800D36E9B8C0101010E0001C76F0101AC0E05
:100788000001C66F87EC06F00101010E0001C76F7A
:100798000101B10E0001C66FB1EC04F00101010EB8
:1007A8000001C76F0101AA0E0001C66FA5EC06F093
:1007B80045EC05F0000E936E000E8A6E9F909F9A8E
:1007C8009F86FAEC05F09D86000E0001C76F190E92
:1007D8000001C66F6C0E42EC04F0D1EC06F020EE7E
:1007E800C9F011EEA5F0050EDECFE6FFE82EFCD726
:1007F8004D0E0001C66F020E22EC03F0FFD7EACFC0
:10080800BBF0E1CFBCF0E2CFBDF0D9CFBEF0DACF7C
:10081800BFF0F3CFC0F0F4CFC1F0F6CFC2F0F7CFFE
:10082800C3F0F8CFC4F0F5CFC5F09EA603D09E96CE
:100838005DEC00F0F2A403D0F2947AEC04F016EC2C
:1008480005F0C5C0F5FFC4C0F8FFC3C0F7FFC2C0BC
:10085800F6FFC1C0F4FFC0C0F3FFBFC0DAFFBEC0DF
:10086800D9FFBDC0E2FFBCC0E1FFBBC0EAFFBAC010
:10087800E9FFB9C0FBFFB8C0FAFF11000001C86F5B
:10088800000EAD6E000EAC6E0001C8B1AD8800015F
:10089800C8A302D0AD8CAC8C0001C8B5AD8E0001E8
:1008A800C8A702D0AC8801D0AC8A0001C8B9AD8411
:1008B8000001C8BBAC860001C8AD02D09D8A01D03A
:1008C8009D9A0001C8AF02D09D8801D09D98C6C0EE
:1008D800B0FF0001C7C0A2F1A2C1A3F10101A46B3E
:1008E8000101A3517F6EAD8AAC8E1200000E00018B
:1008F800976F000E0001966FC0EC06F00001000E25
:100908000001AF6F0001B40E0001AE6F0001000ED0
:100918000001B16F0001B60E0001B06F020E17ECB6
:1009280006F00001B26F0001B36B0001B2BFB3075C
:100938000001B251020AB311D8A412000A0E000134
:10094800AB6F0001000E0001AD6F0001B60E000193
:10095800AC6F020E31EC06F012000001C7C0CFF0F8
:100968000001C6C0CEF0000120EE0AF00001CE5111
:10097800D9260001CF51DA22000EDF6E000120EEE9
:100988000BF00001CE51D9260001CF51DA22000E1A
:10099800DF6E000120EE0CF00001CE51D9260001D7
:1009A800CF51DA22050EDF6E000120EE0EF00001B5
:1009B800CE51D9260001CF51DA22000EDF6E120087
:1009C800000120EE34F00001C651D9260001C751BC
:1009D800DA22000EDF6E000120EE35F00001C6516C
:1009E800D9260001C751DA22000EDF6E000E000181
:1009F800C86F030E0001C86501D012000001C8517C
:100A08000D0DF3500001C625D96EF4500001C72121
:100A1800DA6E000EDF6E0001C82B030E0001C865F8
:100A2800EDD71200316601D01200DBEC05F00001B1
:100A3800995100019811D8A41200C9EC06F00001E0
:100A4800975100019611D8B412000101010E00015E
:100A5800976F01016C0E0001966F48EC06F00009D3
:100A6800D8A412000001000E0001976F0001600E6B
:100A78000001966F48EC06F00009D8B4D5EC06F0F2
:100A88001200000E316E0001000E0001C76F000158
:100A9800600E0001C66FE4EC04F00101010E0001D4
:100AA800C76F01016C0E0001C66FE4EC04F0010190
:100AB800010E0001C76F0101360E0001C66FE4EC9C
:100AC80004F00101010E0001C76F0101000E0001D1
:100AD800C66FE4EC04F01200000199C09FF0000119
:100AE80098C09EF0000197C09DF0000196C09CF050
:100AF80010D09EC0D9FF9FC0DAFF9CC0E1FF9DC007
:100B0800E2FFDFCFE7FF00019E4B9F2B00019C4BCC
:100B18009D2B00019A07D8A09B0700019A29D8B4F9
:100B28009B29D8B41200E5D701EE00F0A20EEE6AB8
:100B3800E806FDE100EE60F0360EEE6AE806FDE13B
:100B4800326A316AB00EF66E0D0EF76E000EF86E50
:100B580000EEC9F010EE05F00900F5CFEEFFE55004
:100B6800E150FAE1000EF86E0001BBEF03F004C09B
:100B78000AF003C009F002C008F001C007F00ED067
:100B880009C0D9FF0AC0DAFF07C0E1FF08C0E2FFC9
:100B9800DFCFE7FF094A0A2A074A082A0506D8A02C
:100BA80006060528D8B40628D8B41200E9D7F2AC4E
:100BB80007D0000E0001996F000E0001986F120017
:100BC800C9EC06F00001975100019611D8B407D07E
:100BD800000E0001996F000E0001986F1200000EC0
:100BE8000001996F010E0001986F1200000120EEBC
:100BF8000CF00001CE51D9260001CF51DA22040EA3
:100C0800DF6E8A988A9A938A938893908A90000EC6
:100C1800C66E000EC76E000EC86EC686C78E770EEB
:100C2800C812C68A12002E6E0101010E0001A16FC2
:100C38000101000E0001A06F2EC0A2F00001AFC09C
:100C4800A4F00001AEC0A3F00001B1C0A6F00001FD
:100C5800B0C0A5F0CAEC01F012000001AE6F0101AE
:100C6800010E0001A16F01016C0E0001A06FAEC062
:100C7800A2F0ABC0A3F00001ADC0A5F00001ACC06C
:100C8800A4F059EC02F01200000120EE35F000014A
:100C98009651D92600019751DA22DF502E6E2E5038
:100CA8000D0DF35000019625D96EF45000019721DF
:100CB800DA6EDF501200B7EC06F001C01BF002C07C
:100CC8001CF00B0E176E000E196E000E186E000E3B
:100CD80075EC06F0000E026E000E016EAEEC06F02A
:100CE80012001A6E0001000E0C6E0001600E0B6EF1
:100CF8001AC00DF017C00EF019C010F018C00FF090
:100D0800CDEC02F012000001C7C030F00001C6C0EF
:100D18002FF020EE04F02F50D9263050DA22000EA2
:100D2800DF6E1200F20E3216ACAC03D03290ACB0CB
:100D38003280ACB43284ACB23286AFCF01F001500D
:100D48001200C6C0D9FFC7C0DAFF000EDE6E000E63
:100D5800DD6E120001C003F002C004F004C0CFFF32
:100D680003C0CEFF1200CECF03F0CFCF04F003C0F4
:100D780001F004C002F0120096C098F097C099F0F4
:100D880099C0D7FF98C0D6FF1200000EF2AE010E30
:100D98000001966F0001976B1200D08EF28EF28CD4
:0E0DA8001200D38E03001200111213144D001E
:08FFF8008AF795FFF2F9FFF111
:00000001FF
