:040000005BEF00F0C2
:10000800FACF82F0FBCF83F0E9CF84F02DEF05F033
:10001800D8CF1DF0E8CF1EF0E0CF1FF0FACF20F0C8
:10002800FBCF21F0E9CF22F0EACF23F0E1CF24F093
:10003800E2CF25F0D9CF26F0DACF27F0F3CF28F09A
:10004800F4CF29F0F6CF2AF0F7CF2BF0F8CF2CF029
:10005800F5CF2DF09EA003D09E9083EC07F09EAACA
:1000680003D09E9A9EEC04F02DC0F5FF2CC0F8FF3B
:100078002BC0F7FF2AC0F6FF29C0F4FF28C0F3FF02
:1000880027C0DAFF26C0D9FF25C0E2FF24C0E1FF60
:1000980023C0EAFF22C0E9FF21C0FBFF20C0FAFF0E
:1000A8001FC0E0FF1EC0E8FF1DC0D8FF100001EF11
:1000B80007F04ED1C5B0FED7000120EE1DF00001BB
:1000C800A551D9260001A651DA22DF50D8A40BD0B9
:1000D800000120EE0DF00001A551D9260001A6511E
:1000E800DA22030E16D0000120EE1DF00001A55102
:1000F800D9260001A651DA22010EDF620BD00001D9
:1001080020EE0DF00001A551D9260001A651DA22F2
:10011800070EDF6E000120EE1CF00001A551D92664
:100128000001A651DA22DF50C96E1200000120EE4C
:100138000DF00001A551D9260001A651DA22040EBE
:10014800DF6E1200C5BCFED7000120EE1BF00001D7
:10015800A551D9260001A651DA22DF502E6E0001E2
:1001680020EE1AF00001A551D9260001A651DA2285
:10017800DF502E5CD8B026D0000120EE1BF0000125
:10018800A551D9260001A651DA22DF502E6E2E5035
:10019800010D100EF326000EF422F3500001A525E0
:1001A800D96EF4500001A621DA6EDF50C96E000145
:1001B80020EE1BF00001A551D9260001A651DA2234
:1001C800DF2A1200000120EE1BF00001A551D926FC
:1001D8000001A651DA22000110EE1AF00001A55123
:1001E800E1260001A651E222E750DF621200000179
:1001F80020EE0DF00001A551D9260001A651DA2202
:10020800020EDF6EC5841200000120EE0DF0000121
:10021800A551D9260001A651DA22070EDF6EC58640
:100228001200000120EE0BF00001A551D9260001B3
:10023800A651DA22DF50FF0AD8B462D0000120EEBE
:100248000BF00001A551D9260001A651DA22DF5092
:100258002E6E000120EE0AF00001A551D9260001FA
:10026800A651DA22DF502E5CD8B04AD0000120EE29
:100278000BF00001A551D9260001A651DA22DF5062
:100288002E6E2E50010DF3500001A525D96EF450A5
:100298000001A621DA6EC9CFDFFF000120EE0BF0C6
:1002A8000001A551D9260001A651DA22DF2A000152
:1002B80020EE0BF00001A551D9260001A651DA2243
:1002C800DF502E6E000120EE0AF00001A551D9265C
:1002D8000001A651DA22DF502E5CD8B00ED0000102
:1002E80020EE0DF00001A551D9260001A651DA2211
:1002F800050EDF6EC59AC5881200C58AC58812002A
:10030800000120EE0BF00001A551D9260001A651ED
:10031800DA22FF0EDF620FD0C5BCFED7000120EE47
:100328000BF00001A551D9260001A651DA22000ED2
:10033800DF6EC5861200000120EE0DF00001A55108
:10034800D9260001A651DA22020EDF6EC5841200FA
:10035800000120EE0DF00001A551D9260001A6519B
:10036800DA22DF50010AD8B4A5D6030AD8B4DED6FB
:10037800010AD8B4E7D6060AD8B446D7020AD8A4E0
:1003880012004FD70001946F0B0E0001945DD8B096
:1003980012000001946701D01200000120EE0DF058
:1003A8000001A551D9260001A651DA22DF50040A1E
:1003B800D8A41200000120EE1CF00001A551D92696
:1003C8000001A651DA2200019451010DF3500001F9
:1003D8009025E16EF45000019121E26EE750000192
:1003E800926F0001D8909235DF6E000120EE1AF06E
:1003F8000001A551D9260001A651DA22000EDF6EB0
:100408003ED0000120EE1AF00001A551D9260001C6
:10041800A651DA22DF500001926F00019251010DBE
:10042800F35000019025D96EF45000019121DA6E45
:10043800000110EE1AF00001A551E1260001A651B5
:10044800E222E7500001936F00019351010D100E55
:10045800F326000EF422F3500001A525E16EF450B6
:100468000001A621E26EDFCFE7FF000120EE1AF0BF
:100478000001A551D9260001A651DA22DF2A000180
:1004880020EE1AF00001A551D9260001A651DA2262
:10049800DF500001926F000194510001925DD8A0D5
:1004A800B0D7000120EE1DF00001A551D9260001AA
:1004B800A651DA22000EDF6E000120EE0DF00001D9
:1004C800A551D9260001A651DA22010EDF6E0001DE
:1004D80020EE1BF00001A551D9260001A651DA2211
:1004E800000EDF6EC5801200000120EE35F000011D
:1004F8006A51D92600016B51DA22DF500001736F6F
:10050800000173510D0DF35000016A250001766F4B
:10051800F45000016B210001776F010E76C0D9FFFE
:1005280077C0DAFFDF626DD0000120EE01F0000134
:100538007651D92600017751DA22DF5000016C5D2F
:10054800D8B002D0FD0E1200000120EE01F000012B
:100558007651D92600017751DA22DF500001716FF8
:10056800000171510001746F0001756B000170C0CA
:1005780061F000016FC060F0030E000176250001F4
:10058800716F000E000177210001726F71C062F077
:1005980072C063F074C064F075C065F09AEC06F040
:1005A800000120EE35F000016A51D92600016B5197
:1005B800DA22000110EE35F000016A51E12600014F
:1005C8006B51E222E7500001716F00017129030BA2
:1005D800DF6E000120EE02F000017651D9260001FD
:1005E8007751DA226DC0E1FF6EC0E2FFDFCFE7FF8F
:1005F80076C0D9FF77C0DAFF000EDF6E00017451B4
:100608001200FC0E1200E00ED36E9B8C0201020E4B
:100618000001916F0201060E0001906FABEC07F02C
:100628000201020E0001916F02010B0E0001906F92
:10063800DBEC05F00201020E0001916F0201000ED1
:100648000001906FD6EC07F06FEC06F0000E936E89
:10065800000E8A6E9F909F9A9F861EEC07F09D86DB
:10066800000E0001916F190E0001906F6C0E6CEC7A
:1006780005F002EC08F0A1C002F2A2C003F2A3C088
:1006880004F2A4C005F20201020E0001916F0201FA
:10069800020E0001906F010EC6EC01F0C9EC07F0E4
:1006A8000201020E0001916F0201040E0001906F19
:1006B800010EC6EC01F0C9EC07F003C290F0010E80
:1006C8004FEC04F0C9EC07F0E8EC04F0000190C02E
:1006D800D9FF000191C0DAFFDF500201026F05C2A5
:1006E80090F0010E4FEC04F0C9EC07F0E8EC04F0D0
:1006F800000190C0D9FF000191C0DAFFDF5002016C
:10070800046FC1D700016CC070F00001716B00016B
:1007180020EE34F000016A51D92600016B51DA222B
:10072800DF500001726F000172510D0DF35000018E
:100738006A250001736FF45000016B210001746F8A
:1007480073C0D9FF74C0DAFFDF50D8B402D0FF0EEF
:100758001200000120EE01F000017351D9260001BA
:100768007451DA2200016CC0DFFF000120EE02F0B4
:1007780000017351D92600017451DA2200016DC0BD
:10078800DFFF030E000173250001606F000E0001FA
:1007980074210001616F00016FC063F000016EC039
:1007A80062F070C064F071C065F09AEC06F0000168
:1007B80020EE34F000016A51D92600016B51DA228B
:1007C800000110EE34F000016A51E12600016B517E
:1007D800E222E7502E6E2E28030BDF6E73C0D9FF7E
:1007E80074C0DAFF010EDF6E010E12000DC012F0A8
:1007F800136A20EE34F00B50D9260C50DA22DF5061
:10080800146E14500D0DF3500B24156EF4500C207B
:10081800166E15C0D9FF16C0DAFFDF50D8B402D063
:10082800FF0E120020EE01F01550D9261650DA22DC
:100838000DC0DFFF20EE02F01550D9261650DA223F
:100848000EC0DFFF030E1524016E000E1620026E87
:1008580010C004F00FC003F012C005F013C006F07A
:10086800C2EC06F020EE34F00B50D9260C50DA22F8
:1008780010EE34F00B50E1260C50E222E750116ED6
:100888001128030BDF6E15C0D9FF16C0DAFF010E61
:10089800DF6E010E12000001916F0001916701D017
:1008A8001200000120EE0DF00001A551D92600012B
:1008B800A651DA22DF50040AD8A41200000120EE63
:1008C8001CF00001A551D9260001A651DA22D880D2
:1008D80000019035DF6E000120EE0AF00001A551FD
:1008E800D9260001A651DA22000191C0DFFF0001DC
:1008F80020EE0BF00001A551D9260001A651DA22FD
:10090800FF0EDF6E000120EE1DF00001A551D92673
:100918000001A651DA22010EDF6E000120EE0DF073
:100928000001A551D9260001A651DA22010EDF6E79
:10093800C58012009EAA3AD020EE04F02F50D92686
:100948003050DA22DF501B6E1B50010DF3502F245C
:10095800D96EF4503020DA6EBAEC07F0DF6E20EE74
:1009680004F02F50D9263050DA22DF2A20EE04F086
:100978002F50D9263050DA22040EDF6217D01F0E0E
:10098800176E30C019F02FC018F020EE04F02F5069
:10099800D9263050DA22DF5099EC07F020EE04F027
:1009A8002F50D9263050DA22000EDF6E32A6120000
:1009B800AC98AC881E0E176E000E196E000E186EDD
:1009C800000E99EC07F01200000E0001A06F000E57
:1009D80000019F6F19D000019F510001A525D96E14
:1009E8000001A0510001A621DA6E0001950E000158
:1009F8009F25E16E0001000E0001A021E26EDFCF0D
:100A0800E7FF00019F4BA02B000120EE0AF0000138
:100A1800A551D9260001A651DA22DF500001926FB4
:100A2800936B0001A051800A0001946F925100015C
:100A38009F5D00019351800A00019459D8A0CBD73B
:100A48000001000E0001916F0001950E0001906FEA
:100A58001200EACF85F0E1CF86F0E2CF87F0D9CF58
:100A680088F0DACF89F0F3CF8AF0F4CF8BF0F6CFA5
:100A78008CF0F7CF8DF0F8CF8EF0F5CF8FF09EA6E3
:100A880003D09E965DEC00F0F2A403D0F294A4EC9F
:100A980005F040EC06F08FC0F5FF8EC0F8FF8DC062
:100AA800F7FF8CC0F6FF8BC0F4FF8AC0F3FF89C044
:100AB800DAFF88C0D9FF87C0E2FF86C0E1FF85C0A2
:100AC800EAFF84C0E9FF83C0FBFF82C0FAFF110080
:100AD8000001956F000EAD6E000EAC6E000195B171
:100AE800AD88000195A302D0AD8CAC8C000195B502
:100AF800AD8E000195A702D0AC8801D0AC8A000168
:100B080095B9AD84000195BBAC86000195AD02D0C6
:100B18009D8A01D09D9A000195AF02D09D8801D091
:100B28009D9890C0B0FF000191C092F092C093F0E0
:100B38000001946B000193517F6EAD8AAC8E120058
:100B4800000E0001616F000E0001606FF1EC07F00C
:100B58000001000E0001796F00017E0E0001786F20
:100B68000001000E00017B6F0001800E00017A6F0A
:100B7800020E3BEC07F000017C6F00017D6B000169
:100B88007CBF7D0700017C51020A7D11D8A41200A8
:100B98000A0E0001756F0001000E0001776F000159
:100BA800800E0001766F020E55EC07F0120000016E
:100BB80091C0A6F0000190C0A5F0000120EE0AF057
:100BC8000001A551D9260001A651DA22000EDF6ED8
:100BD800000120EE0CF00001A551D9260001A65114
:100BE800DA22000EDF6E000120EE0DF00001A551A3
:100BF800D9260001A651DA22050EDF6E000120EE8B
:100C08000FF00001A551D9260001A651DA22000EE5
:100C1800DF6E1200000120EE34F000019051D92659
:100C280000019151DA22000EDF6E000120EE35F04E
:100C380000019051D92600019151DA22000EDF6E91
:100C4800000E0001926F030E0001926501D01200A0
:100C5800000192510D0DF35000019025D96EF4500A
:100C680000019121DA6E000EDF6E0001922B030E57
:100C780000019265EDD71200316601D01200E2EC56
:100C880006F00001635100016211D8A41200FAECC9
:100C980007F00001615100016011D8B41200010190
:100CA800010E0001616F01016C0E0001606F6CECB8
:100CB80007F00009D8A412000101010E0001616FBC
:100CC8000101A20E0001606F6CEC07F00009D8B4B6
:100CD80006EC08F01200000E316E0101010E000151
:100CE800916F0101A20E0001906F0EEC06F0010158
:100CF800010E0001916F01016C0E0001906F0EEC66
:100D080006F00101010E0001916F0101360E00018C
:100D1800906F0EEC06F00101010E0001916F0101C8
:100D2800000E0001906F0EEC06F01200000163C087
:100D380069F0000162C068F0000161C067F000015D
:100D480060C066F010D068C0D9FF69C0DAFF66C01D
:100D5800E1FF67C0E2FFDFCFE7FF0001684B692BC7
:100D68000001664B672B00016407D8A065070001E6
:100D78006429D8B46529D8B41200E5D704C00AF0AC
:100D880003C009F002C008F001C007F00ED009C086
:100D9800D9FF0AC0DAFF07C0E1FF08C0E2FFDFCFD2
:100DA800E7FF094A0A2A074A082A0506D8A00606BC
:100DB8000528D8B40628D8B41200E9D7F2AC07D071
:100DC800000E0001636F000E0001626F1200FAEC62
:100DD80007F00001615100016011D8B407D0000E7E
:100DE8000001636F000E0001626F1200000E000127
:100DF800636F010E0001626F120001EE00F0D80E61
:100E0800EE6AE806FDE1326A316A120EF66E100EDD
:100E1800F76E000EF86E00EEA1F010EE04F0090077
:100E2800F5CFEEFFE550E150FAE1000EF86E000153
:100E380007EF03F0000120EE0DF00001A551D926BF
:100E48000001A651DA22040EDF6E8A988A9A938AE4
:100E5800938893908A90000EC66E000EC76E000E9F
:100E6800C86EC686C78E770EC812C68A12002E6E46
:100E78000101010E00016B6F0101000E00016A6F94
:100E88002EC06CF0000179C06EF0000178C06DF0E2
:100E980000017BC070F000017AC06FF078EC02F0BE
:100EA80012000001786F0101010E00016B6F010152
:100EB8006C0E00016A6F78C06CF075C06DF00001AF
:100EC80077C06FF0000176C06EF086EC03F0120078
:100ED800000120EE35F000016051D9260001615172
:100EE800DA22DF502E6E2E500D0DF35000016025D2
:100EF800D96EF45000016121DA6EDF501200E8EC7F
:100F080007F001C01BF002C01CF00B0E176E000E9C
:100F1800196E000E186E000E99EC07F0000E026EA6
:100F2800000E016EDFEC07F012001A6E0101010ECF
:100F38000C6E0101A20E0B6E1AC00DF017C00EF058
:100F480019C010F018C00FF0FAEC03F012000001FD
:100F580091C030F0000190C02FF020EE04F02F5027
:100F6800D9263050DA22000EDF6E1200F20E321649
:100F7800ACAC03D03290ACB03280ACB43284ACB2FA
:100F88003286AFCF01F001501200000120EE0DF0C3
:100F98000001A551D9260001A651DA22040EDF620C
:100FA800F4D7120090C0D9FF91C0DAFF000EDE6EB0
:100FB800000EDD6E120001C003F002C004F004C090
:100FC800CFFF03C0CEFF1200CECF03F0CFCF04F087
:100FD80003C001F004C002F0120060C062F061C0FA
:100FE80063F063C0D7FF62C0D6FF1200000EF2AEF6
:100FF800010E0001606F0001616B1200D08EF28E4D
:0E100800F28C1200D38E03001200A84F554D3B
:08FFF8008AF795FFF2F9FFF111
:00000001FF
